:020000040800F2
:1000000000C00020E92300085D1400085F14000808
:100010006114000863140008651400080000000063
:10002000000000000000000000000000671400084D
:1000300069140008000000006B1400086D1400082B
:10004000312400083124000831240008312400083C
:10005000312400083124000831240008312400082C
:10006000312400083124000831240008312400081C
:10007000312400083124000831240008312400080C
:1000800031240008312400083124000831240008FC
:1000900031240008312400083124000831240008EC
:1000A00031240008711400083124000831240008AC
:1000B00031240008312400083124000831240008CC
:1000C00031240008312400083124000831240008BC
:1000D00031240008312400083124000831240008AC
:1000E000312400083124000831240008312400089C
:1000F000312400083124000831240008312400088C
:10010000312400083124000831240008312400087B
:10011000312400083124000831240008312400086B
:10012000312400083124000831240008312400085B
:1001300000000000000000000000000000000000BF
:1001400000000000000000000000000000000000AF
:10015000000000000000000000000000000000009F
:10016000000000000000000000000000000000008F
:10017000000000000000000000000000000000007F
:10018000000000000000000000000000000000006F
:10019000000000000000000000000000000000005F
:1001A000000000000000000000000000000000004F
:1001B000000000000000000000000000000000003F
:1001C000000000000000000000000000000000002F
:1001D000000000000000000000000000000000001F
:0401E0005FF8E0F1F3
:1001E40010B5054C237833B9044B13B10448AFF36D
:1001F40000800123237010BD1400002000000000C3
:100204008C24000808B5034B1BB103490348AFF322
:10021400008008BD00000000180000208C240008A5
:100224000C4A1368013313600B4A136801331360DB
:100234000A4A136801331360094A136801331360CF
:10024400084A136801331360074A136801331360C3
:10025400704700BF400000204400002048000020F8
:100264004C000020380000203C00002008B501218B
:100274001D4801F0A1FA1D4B10B15A68262A0BD073
:100284005A681C2A1FD1D968023102D14FF0FF31BC
:10029400D960D9680A445A6015490A68063A112A8D
:1002A40006D85A68222A03DD8A680AB901229A60AC
:1002B400104A1268063A112A15D85A68132A12DC11
:1002C40001229A6008BD182A04D1D9680129E0D115
:1002D4000221DDE7262A02D16FF00101D8E70C2ABA
:1002E400D7D10121D4E708BD001001400C0500203E
:1002F400AC040020B80400202D4B10B51A682D4C16
:1003040062B14FF4487192FBF1F301FB13232BB953
:10031400A3681BB90123236173232360264B1A6846
:10032400C82A0ADD2269012A1AD100221A60236828
:10033400013B012B236003DC22612369012B0FD1D4
:1003440023680B3B122B0BD81C4B5B68133B022B13
:1003540006D8002323610123A3604FF47A73E3607A
:100364008021174801F028FAF8B9A368012B1CD1A1
:10037400E3686061053BE36063697BB9114A136814
:100384001A3B112B0AD80D4B5B68262B06D1A368A8
:10039400012B03D1E1680029C8BF9360E368002BF7
:1003A400DEBF0023A360E36010BD01236361E3E7C4
:1003B40034000020680500204C0000200C050020BB
:1003C40000100140AC040020104B1B68B3F57A7F89
:1003D40014DDB3F5FA6F13DD40F6B8329342D4BF9F
:1003E400502328230A4A11688B420EDA0023136033
:1003F400084A1368013B05D0136070478C23F1E76A
:100404006423EFE77A219360116070473400002081
:1004140040000020AC0400200F4B1B68B3F57A6F3A
:1004240016DB41F28832934214DD41F2707293423A
:10043400D4BF50232823094A11688B4207DA0023CA
:100444001360074A1368013B08BF7A23136070479F
:10045400C823F0E79623EEE734000020380000209C
:10046400B8040020074B1A68962A09DD00221A6096
:10047400054B996811B901229A6001E00129FBD06A
:10048400704700BF3C000020B804002073B5002072
:1004940000F0EEFC674B7F2200933A2108230120F1
:1004A40000F0F0FE3A227F21012000F0EFFC624BC5
:1004B4009A68002A40F08180197918785F4B0622E7
:1004C4000093102300F0DEFE5D4B5E4E9A68012A15
:1004D4007CD140F6FC023168914207DD1979187825
:1004E400594B0E2200930C2300F0CCFE574CA3680A
:1004F400012B7BD121792078554B009314231A4684
:1005040000F0C0FE534D6B69012B7CD1AB68012B0D
:100514000BD1514B6168206800930D231A460139B1
:100524000F30C9B2C0B200F0ADFE2B69012B07D168
:10053400494B2979287800930D231A4600F0A2FE2E
:100544000A24464B464A0221552000F049FE3268EF
:10055400424B92FBF4F20221052000F061FE414B74
:1005640002211A686E2092FBF4F23C4B00F058FE14
:10057400EA68002A0CDD394B92FBF4F202213220A6
:1005840000F04EFE354B384A0221412000F028FE8F
:100594004FF47A73326892FBF3F403FB14243CB9EE
:1005A400324D2B68012B3CD1204600F0A3FB2C607C
:1005B40002B0BDE8704000F015BC596818782C4BA7
:1005C4000931009303220723C9B27BE7002A8DD1A6
:1005D40040F6FC023168914288DD59681878254B51
:1005E400063900930E220C23C9B27DE72369012B3F
:1005F40003D121792078204B7FE7002B82D1217908
:1006040020781E4B79E7002B8FD1AB68012B8CD15E
:10061400616820681A4B063100930F3007231322B8
:100624007FE7002BC4D1012000F064FB01232B6081
:10063400BEE700BF622B0008AC0400208E2A00082D
:10064400B804002034000020562A00080C050020BD
:10065400AE2A0008680500200A2C0008B724000808
:10066400A72A000830000020AC2A0008000000205F
:100674009A2A0008722A0008262B0008EA2A000891
:10068400242C000838B51E4A1E4B14211E2000F0ED
:10069400A7FD00F0A7FB1C4C0121204601F08CF8BB
:1006A4000128F9D000247A212A22184B6E2083E8ED
:1006B40016000F22164B012583E8050014229C60C6
:1006C400144B4FF0260E5A600A221C609C60DC60BA
:1006D4001C615D61104B284683E804406FF0010201
:1006E4009C60DA601D6100F005FB0C4B0C4A1D6038
:1006F4000C4B106819681C608142C8BF116038BD7A
:100704009D2A00089926000800100140AC0400202E
:10071400B8040020680500200C050020000000201B
:10072400300000203400002000B591B028220021C0
:1007340006A801F0A1FE1422002101A801F09CFEEC
:100744000223069301230A93102306A80B9301F0B6
:100754003FF800210F2301A8019302910391049112
:10076400059101F00FFA11B05DF804FB2DE9804802
:100774008DB000F0A7FEFFF7D7FF1022002108A8D4
:1007840001F07AFE9B4B4FF4A0419A699A4842F0DB
:1007940010029A619A69002402F010020292029AED
:1007A4009A69012642F020029A619A69022502F0B0
:1007B40020020392039A9A694FF4807942F0080266
:1007C4009A619A694FF0040A02F008020492049AAA
:1007D4009A694FF00A0842F004029A619B69002268
:1007E40003F004030593059B00F0ECFF0022402175
:1007F400824800F0E7FF00224FF48071804800F047
:10080400E1FF002204217F4800F0DCFF42F20203F2
:1008140008A97A48089309940A9400F0E1FE812318
:1008240008A97648089309940A9600F0D9FE4FF473
:10083400A04308A97048089309960A940B9500F000
:10084400CFFE402308A96D48089309960A940B9596
:1008540000F0C6FE08A96A4809960A940B95CDF8DB
:10086400209000F0BDFE08A9664809960A940B95ED
:10087400CDF820A000F0B4FE4FF482736248634ABE
:10088400846080E80C004FF40073C46083610461E9
:100894004461C461046244628462C0F82C8001F043
:1008A40073FA2146102208A801F0E6FD584D594B71
:1008B400C8222B6007234FF4805B28466B600193AA
:1008C400EA60AC602C616C61AC610694079401F041
:1008D40083FC08A92846CDF820B001F0B3FC06A992
:1008E40028460694079401F041FD2146102208A8E9
:1008F40001F0C2FD484F019B4FF080427B603223E0
:100904003846FB603A60BC603C61BC610694079465
:1009140001F062FC08A93846CDF820B001F092FC41
:1009240006A938460694079401F020FD00F078F9F2
:10093400284601F051FC284601F02AFB304600F01D
:10094400D9F9642000F0BEF9204600F01BFA00F04B
:1009540049FA324651462B4800F034FF32462848C3
:10096400494600F02FFF2A227A202C4B0F2583E8DA
:1009740005006E229C602A4B83E8240014229C60AC
:10098400284B294D5A6026221C609C60DC601C6147
:100994005E61264B1E61264E5A606FF001029C6018
:1009A40037461C46C3F80080DA602B68502B03DD01
:1009B40000232B60FFF75AFCFFF79EFCFFF704FDB2
:1009C40040F6FC0332689A4203DDFFF725FDFFF78A
:1009D40049FD184B1A68322A06DD00221A603B686A
:1009E40001333B60FFF752FDA368012BDDD1FFF714
:1009F40049FEDAE700100240000C014000100140FB
:100A04000008014000140140540400200038004054
:100A1400C4040020002C014020050020AC04002068
:100A2400B804002068050020440000200C050020C4
:100A34003400002048000020CB0800EBC310154B05
:100A4400184401F0070301219940134BC9B21B78E4
:100A54000244012B04D0022B12D0904213D17047D0
:100A6400C943C9B2904200D1704710F8013B0B4012
:100A740000F8013CF6E710F8013B4B4000F8013C5C
:100A84009042F8D1704710F8013B0B4300F8013C49
:100A9400E3E700BF5400002050000020F0B5CB086D
:100AA400444D00EBC31011F0070105EB00041DD009
:100AB400C1F10801C9B28A4238BFFF263E4B38BF94
:100AC4008F1A5B5C3CBF3E4133403C4E37782E5C12
:100AD400012F03D0022F32D0334301E026EA03036F
:100AE4008A422B5458D3521A8034D2B2072A1AD9C4
:100AF400324B197804F18003012922D0022935D020
:100B04001146FF200839C9B2072903F8800C03F104
:100B14008003F7D8A2F10803C3F3C403013304EB41
:100B2400C31402F00702BAB3254B9B5C234A127824
:100B3400012A37D0022A30D12278534035E073405D
:100B4400CEE7114600200839C9B2072903F8800C02
:100B540003F18003F7D8A2F10803C3F3C4030133FC
:100B640012F0070204EBC3141AD1F0BD114613F8B6
:100B7400800C0839C043C9B2072903F8800C03F17B
:100B84008003F4D8A2F10803C3F3C403013312F0C1
:100B9400070204EBC3140AD1F0BD2278134304E026
:100BA400074B9B5C227822EA03032370F0BD044BBD
:100BB4009B5CC1E754000020372C00085000002043
:100BC4003F2C000837B505460C4600224021074853
:100BD40000F0F8FD1423022201A905488DF8045001
:100BE4008DF8054001F028F903B030BD0010014034
:100BF4005404002013B5044600224021064800F0A6
:100C0400E1FD02A901F8014D14230122034801F07A
:100C140013F902B010BD00BF0010014054040020BD
:100C240010B5274C012220464FF4805100F0CAFD34
:100C3400204600224FF4804100F0C4FD20460122EA
:100C44004FF4804100F0BEFD002220464FF4805155
:100C540000F0B8FD3F21A820FFF7B4FF0021D32006
:100C6400FFF7B0FF4020FFF7C5FFA020FFF7C2FF4A
:100C7400C020FFF7BFFF1221DA20FFF7A3FF0021F6
:100C84002220FFF79FFF0F218120FFF79BFF3020D9
:100C9400FFF7B0FFA420FFF7ADFFA620FFF7AAFFE0
:100CA400F021D520FFF78EFFAF20FFF7A3FF2046EA
:100CB400BDE8104001224FF4805100F083BD00BF15
:100CC400000C014038B50546094C002220464FF47B
:100CD400805100F077FD29468120FFF773FF2046FD
:100CE400BDE8384001224FF4805100F06BBD00BFD5
:100CF400000C014010B50446002209484FF480510D
:100D040000F060FD002C14BFA720A620FFF772FF9F
:100D1400BDE8104001224FF48051014800F052BD5B
:100D2400000C014010B50446002209484FF48051DC
:100D340000F048FD002C14BFA120A020FFF75AFFAB
:100D4400BDE8104001224FF48051014800F03ABD43
:100D5400000C014010B50446002209484FF48051AC
:100D640000F030FD002C14BFC820C020FFF742FF64
:100D7400BDE8104001224FF48051014800F022BD2B
:100D8400000C0140022838B5134A0446134B10D016
:100D940003284FF0800115D0012818D1402519806F
:100DA4001580FFF7BFFF0020FFF7D4FF0C4B1C702A
:100DB40038BD40211180802200201A80FFF7B2FF45
:100DC4000120F1E71180402200201A80E9E7118018
:100DD400402201201A80F1E70600002004000020D0
:100DE4005100002073B5002400224FF480511B48A9
:100DF40000F0E8FC00224021194800F0E3FC194B04
:100E0400194E1B88164DADF8043064F04F038DF86D
:100E1400063003224FF47A7301A9304601F00CF82E
:100E240001224021284600F0CDFC10494FF47A738A
:100E340001EBC4118022304600F0FEFF0134002291
:100E44004021284600F0BEFC082CDED101224FF4DC
:100E54008051024800F0B6FC02B070BD000C0140A5
:100E640000100140A4240008540400205400002071
:100E74004FF480634FF6FF720349013B9BB29342E8
:100E840000D17047C854F8E7540000200B4610B452
:100E94008842144694BF0B1A421A0C4998BFDAB21E
:100EA400097888BFD2B201F1FF3198BF03460132FD
:100EB4000129D2B204D82046194610BCFFF7EEBD72
:100EC4002146184610BCFFF7B7BD00BF51000020F3
:100ED4002DE9F04F1C7985B0944202D85D79954292
:100EE40000D29A79121B9C78DE7804FB0232B94D49
:100EF4000732B94C002E40F0B8802D785E78013D61
:100F0400EDB2082E019512D907464FF0010A94F864
:100F14000090DFF8C8C21C780444A74216DAFC0823
:100F2400E40107F00705029403950C468AE04FF0AC
:100F3400010994F80080DFF8A4E2841A0394039C66
:100F440017191C78FFB20444A74205DB1878013056
:100F5400C0B205B0BDE8F08F0E46FC08E40112F8FB
:100F640001CB029407F0070ABCF1000FE7D01CF094
:100F7400010F23D0019C012C95BF029CF408341965
:100F840007EBC41494BF554606F00705B4F5806F0B
:100F940014D8B8F1010F09D0B8F1020F13D01EF81C
:100FA40004B009FA05F54BEA050505E01EF804B09E
:100FB40008FA05F52BEA05050EF8045001364FEA48
:100FC4005C0CF6B2D0E71EF804B009FA05F58BEA1A
:100FD4000505F1E712F8018BB8F1000F43D04FF08B
:100FE400080E18F0010F23D0019D012D95BF029D1D
:100FF400E508651907EBC51594BF039E04F00706C1
:10100400B5F5806F14D8B9F1010F09D0B9F1020F09
:101014001FD01CF805B00AFA06F64BEA060605E0EE
:101024001CF805B009FA06F62BEA06060CF805606A
:101034005FEA580814D00EF1FF3E01341EF0FF0E93
:10104400E4B2CED15D780D44AC42C3DB0137FFB2CC
:1010540061E71CF805B00AFA06F68BEA0606E5E72E
:101064007444E4B2EEE70834FBE72D781E78013DC2
:10107400EDB2082E019513D90F464FF0010A94F8EA
:101084000090DFF858C15C780C44A742BFF65EAF0D
:10109400FC08E40107F0070502940395044685E083
:1010A4004FF0010994F80080DFF830E18C1A0394C2
:1010B400039C17195C78FFB20C44A742BFF646AFF5
:1010C4000646FC08E40112F801CB029407F0070A73
:1010D400BCF1000FECD01CF0010F23D0019C012CBB
:1010E4008DBF029CF40807EBC414341994BF06F0B6
:1010F40007055546B4F5806F14D8B8F1010F09D02F
:10110400B8F1020F13D01EF804B009FA05F54BEA42
:10111400050505E01EF804B008FA05F52BEA0505F7
:101124000EF8045001364FEA5C0CF6B2D0E71EF814
:1011340004B009FA05F58BEA0505F1E712F8018B0D
:10114400B8F1000F43D04FF0080E18F0010F23D070
:10115400019D012D8DBF029DE50807EBC51565199D
:1011640094BF04F00706039EB5F5806F14D8B9F157
:10117400010F09D0B9F1020F1FD01CF805B00AFA0B
:1011840006F64BEA060605E01CF805B009FA06F671
:101194002BEA06060CF805605FEA580814D00EF135
:1011A400FF3E01341EF0FF0EE4B2CED11D7805449B
:1011B400AC42C3DB0137FFB265E71CF805B00AFA9D
:1011C40006F68BEA0606E5E77444E4B2EEE7083473
:1011D400FBE700BF51000020500000205400002015
:1011E4002DE9F8431F460646884604460B4B02F198
:1011F400FF391D783B78013DED1AEDB219F8012F46
:1012040042B120463B464146FFF762FE0444E4B245
:10121400A542F3D2A01B80B2BDE8F88306000020EB
:101224002DE9FF4198460023002A8DF80430064634
:10123400B8BF01234FF00A040F46B8BF52420DF164
:10124400050192FBF4F00D4604FB1022303205F840
:10125400012B024660B913B12D232B708D1C34462B
:1012640015F8012D32B9A01BC0B204B0BDE8F0815D
:101274002946E6E7204643463946FFF729FE04445B
:10128400E4B2EDE72DE9F74F4FF001082E4C2F4F54
:10129400247801EB0309013CE4B200942C4C024491
:1012A40094F800C049454CDA05463BE00C9C14F820
:1012B400013B0C94002B41D04FF0000EEC08E401EC
:1012C400019405F0070ADC0725D5009E01EB0E0406
:1012D400012EE4B295BF019EE608A61905EBC616D9
:1012E40094BF544604F00704B6F5806F13D8BCF1DC
:1012F400010F09D0BCF1020F19D017F806B008FA93
:1013040004F44BEA040405E017F806B00CFA04F4FC
:101314002BEA0404BC555B0810D00EF1010EBEF19B
:10132400080FD0D19542C1DB0831C9B2BAE717F82A
:1013340006B008FA04F48BEA0404EBE70135EDB2D5
:10134400F0E703B0BDE8F08F510000205400002006
:10135400500000200E4B82B09A6942F001029A615B
:101364009A6902F001020092009ADA6942F080520E
:10137400DA61DB69074A03F080530193019B5368E8
:1013840023F0E06343F00073536002B0704700BF82
:10139400001002400000014010B5044686B010223F
:1013A400002102A801F068F82268124B9A421ED16B
:1013B40003F5EC33DA6902A942F48042DA61DA69AE
:1013C4000D4802F480420092009A9A6942F00802A1
:1013D4009A619B6903F008030193019B4FF4204336
:1013E4000293022303930323059300F0F9F806B054
:1013F40010BD00BF00380040000C014007B5036871
:10140400134A934214D1134B19209A6942F400628F
:101414009A6100229B69114603F400630093009BC8
:1014240000F086F8192000F0B7F803B05DF804FB6B
:10143400B3F1804FF9D103F50433DA6942F00102C4
:10144400DA61DB6903F001030193019BEDE700BF5F
:10145400002C0140001002407047FEE7FEE7FEE763
:10146400FEE770477047704700F03EB8014800F04F
:10147400C5BD00BFC40400207047000038B50E4B42
:10148400054618784FF47A73B3FBF0F30B4A1068EF
:10149400B0FBF3F000F08EF8044658B90F2D09D8CC
:1014A400024629464FF0FF3000F042F8044B204634
:1014B4001D6038BD012038BD0C000020080000204C
:1014C40010000020074A08B51368032043F01003F6
:1014D400136000F01BF80020FFF7D0FFFFF73AFF7E
:1014E400002008BD00200240034A044B11681B7809
:1014F4000B441360704700BF800500200C000020DF
:10150400014B1868704700BF80050020074A00029D
:10151400D36800F4E06023F4E0631B041B0C43F085
:10152400BF6343F400330343D360704700ED00E02E
:10153400174B30B5DC68C4F30224C4F10703251D3E
:10154400042B28BF0423062D4FF0010598BF002467
:1015540005FA03F303F1FF3388BF033C1940A140AC
:1015640005FA04F4013C2240002842EA01024FEA51
:101574000212A9BF00F16040064BD2B200F56140EF
:10158400BBBF00F00F00D2B280F800231A5430BD64
:1015940000ED00E014ED00E0002808DB012342091F
:1015A40000F01F0003FA00F0014B43F822007047DB
:1015B40000E100E00138B0F1807F0AD2F021064B4F
:1015C400064A586082F823100020072298601A60A7
:1015D40070470120704700BF10E000E000ED00E01C
:1015E4002DE9F74F002426466C4F6D4BDFF8B8E128
:1015F400DFF8B8C10A6832FA06F502D103B0BDE8D3
:10160400F08F4FF0010808FA06F802EA0802904544
:1016140040F084804D68122D00F0B18000F2878084
:10162400022D00F0A9807BD8002D00F08C80012DC4
:1016340000F0A0804FF00F09FF2A93BF824606F105
:101644008045083DD0F800B092BFB500D0F804B092
:10165400AD0009FA05F82BEA080804FA05F588BF75
:1016640000F1040A48EA0505CAF80050D1F804A0BC
:101674001AF0805F52D0BD6926F0030845F00105D9
:10168400BD61BD6908F1804805F00105019508F5C3
:10169400803806F0030B019D4FEA8B0BD8F80850F5
:1016A40009FA0BF925EA09093E4DA8426CD005F563
:1016B4008065A8426AD005F58065A84268D005F522
:1016C4008065A84266D005F58065A84264D070455F
:1016D4000CBF0525062505FA0BF545EA0905C8F8EA
:1016E40008501D681AF4803F14BF154395431D60CC
:1016F4005D681AF4003F14BF154395435D609D680F
:101704001AF4801F14BF154395439D60DD681AF4D5
:10171400001F14BF2A4325EA0202DA60013669E792
:10172400032D25D0112D85D1CC68043482E765457D
:1017340009D012D8DFF878904D4504D009F58039E6
:101744004D457FF477AF8C68E4B1012C0CBFC0F831
:101754001080C0F8148008246CE7DFF858904D45D9
:10176400F1D009F580394D45EDD0A9F58019E7E7A9
:1017740000245FE7CC685DE7CC6808345AE7CC689E
:101784000C3457E7042455E70025A4E70125A2E714
:101794000225A0E703259EE704259CE700100240EC
:1017A4000004014000080140001C01400000211019
:1017B40000001110000031108368194214BF012089
:1017C400002070470AB1016170470904FBE700007B
:1017D4002DE9F341054608B901203CE00368DB0725
:1017E40010D42B689F075DD42B68190700F19480EF
:1017F4002B685A0700F1BE80E869002840F02C816C
:10180400002028E08F4C636803F00C03042B07D0FE
:10181400636803F00C03082B09D16368DE0306D563
:1018240023689C03DDD56B68002BDAD1D4E76B68A1
:10183400B3F5803F12D1236843F480332360FFF76C
:101844005FFE064623689803CBD4FFF759FE801B3E
:101854006428F7D9032002B0BDE8F0819BB923685E
:1018640023F480332360236823F480232360FFF769
:1018740047FE064623689903B3D5FFF741FE801B54
:101884006428F7D9E6E7B3F5A02F236803D143F41E
:1018940080232360CFE723F480332360236823F479
:1018A4008023CBE7674C636813F00C0F07D06368A1
:1018B40003F00C03082B10D16368DA030DD42368FA
:1018C4009B0702D52B69012B86D123686A6923F013
:1018D400F80343EAC203236086E72A695A4B6AB1D4
:1018E40001221A60FFF70CFE064623689F07ECD41A
:1018F400FFF706FE801B0228F7D9ABE71A60FFF753
:10190400FFFD0646236898077FF56EAFFFF7F8FDE5
:10191400801B0228F6D99DE7AA694A4C4B4BDAB1E1
:1019240001221A60FFF7ECFD0646636A9B070DD59A
:101934004FF4FA52464B1B68B3FBF2F3019300BF1A
:10194400019B5A1E0192002BF9D151E7FFF7D8FDF4
:10195400801B0228E9D97DE71A60FFF7D1FD06460E
:10196400636A9F077FF544AFFFF7CAFD801B022817
:10197400F6D96FE7334CE369D80024D40127E3692F
:1019840043F08053E361E36903F080530093009BC9
:10199400304E3368D90518D5EB68012B26D1236A5C
:1019A40043F001032362FFF7ABFD41F28836804622
:1019B400236A9B073FD5002F3FF41EAFE36923F052
:1019C4008053E36118E70027E2E7336843F4807348
:1019D4003360FFF795FD80463368DA05DCD4FFF702
:1019E4008FFDA0EB08006428F6D933E7ABB9236A6E
:1019F40041F2883823F001032362236A23F00403AD
:101A04002362FFF77DFD0646236A9807D3D5FFF7C7
:101A140077FD801B4045F7D91CE7052B236A03D1CA
:101A240043F004032362BAE723F001032362236A29
:101A340023F00403B6E7FFF763FDA0EB0800B04210
:101A4400B6D907E700100240000042428004424237
:101A540008000020007000402A4B5A681C4602F01F
:101A64000C02082A3DD00023274E022833602BD1D4
:101A7400FFF746FD0746236899011FD42B6AB3F587
:101A8400803F05D16268A96822F400320A4362608B
:101A9400696A62680B4322F474121343636001237E
:101AA4003360FFF72DFD054623689A013FF5A8AE84
:101AB400FFF726FD401B0228F6D9CBE6FFF720FDF1
:101AC400C01B0228D7D9C5E6FFF71AFD05462368CF
:101AD4009B017FF595AEFFF713FD401B0228F6D955
:101AE400B8E601283FF4B7AE58682B6A00F4803298
:101AF4009A427FF471AE6B6A00F47010C01A18BF7A
:101B04000120A8E6001002406000424230B5194BA3
:101B140087B002AC03F110052246186859680833EF
:101B240003C2AB421446F7D101238DF804300223DB
:101B340011498DF805304B6803F00C02082A17D1BF
:101B4400C3F3834206A80244DB0312F8102C0CD51D
:101B54004B680A48C3F34043504306AA134413F89E
:101B6400143CB0FBF3F007B030BD05485043FAE72E
:101B74000248F8E7A72400080010024000127A0087
:101B840000093D002DE9F0410D46044610B901203D
:101B9400BDE8F081454A136803F007038B4229D35B
:101BA40021688E0731D4CA0744D4404A136803F02D
:101BB40007039D4267D322683D4D12F0040F6ED196
:101BC400130706D56B68226923F4605343EAC20302
:101BD4006B60FFF79BFF6B68364AC3F30313D35C58
:101BE400D840354B1860354B1868FFF747FC002088
:101BF400BDE8F081136823F007030B4313601368F7
:101C040003F007039942C2D1CAE7294B11F0040F2C
:101C14001EBF5A6842F4E0625A60080742BF5A681D
:101C240042F460525A605A68A06822F0F0020243FB
:101C34005A60B8E762681E4E012A33681BD113F458
:101C4400003FA4D0736841F2883823F003031343A0
:101C54007360FFF755FC07467368626803F00C0372
:101C6400B3EB820FA1D0FFF74BFCC01B4045F3D967
:101C74000320BDE8F081022A02D113F0007FE0E7DF
:101C840013F0020FDDE7136823F007032B431360FF
:101C9400136803F007039D427FF479AF8BE76B6809
:101CA400E16823F4E0630B436B6089E700200240A2
:101CB40000100240472C00080800002010000020FB
:101CC4002DE9F3411C4616460F460546FFF718FC5E
:101CD4003444241AFFF714FC8046234B1B68C3F3D7
:101CE400CB3363432A680193936837EA030301D033
:101CF40000202EE0731CF7D0FFF702FCA0EB0800D5
:101D0400A04229D32B685A6822F0E0025A606A681C
:101D1400B2F5827F0AD1AA68B2F5004F02D0B2F5BB
:101D2400806F03D11A6822F040021A60AA6AB2F5E1
:101D3400005F07D11A6822F400521A601A6842F44C
:101D440000521A60012385F851300023032085F8DE
:101D5400503002B0BDE8F081019B002B019B08BF0D
:101D64000024013BBEE700BF0800002010B5134665
:101D74000A4680210446FFF7A3FF20B10320636DC8
:101D840043F02003636510BD10B50446002851D00C
:101D9400436A002B4AD14268B2F5827F00D0C36106
:101DA4000023A36294F8513003F0FF0223B984F8AE
:101DB40050202046FFF7F0FA0223226884F85130BD
:101DC4001368A06823F040031360636800F40440C0
:101DD40003F482730343E068A16900F400600343E1
:101DE400206900F002000343606900F0010003432E
:101DF40001F400700343E069090C00F03800034368
:101E0400206A01F0040100F080000343A06A00F49A
:101E14000050034313605160D369002023F400632E
:101E2400D3610123606584F8513010BD0023036140
:101E34004361B5E7012010BD2DE9F3411E4690F83A
:101E440050300446012B0D46904600F09E8001233D
:101E540080F85030FFF754FB074694F85100C0B2A5
:101E6400012840F09080002D60D0B8F1000F5DD0C3
:101E74000323002084F85130A3686065B3F5004F54
:101E8400A4F83680A063A087E0876064206425639B
:101E9400A4F83480206807D1036823F0400303606A
:101EA400036843F48043036003685B065EBF036812
:101EB40043F040030360E368B3F5006F63683ED109
:101EC40013B1B8F1010F07D135F8023BC3602563A4
:101ED400E38E013B9BB2E386E38E9BB2A3B93A4601
:101EE40031462046FFF742FF002849D1A36833B9A1
:101EF40001932368DA6801929B680193019B606DEA
:101F0400003018BF012011E022689368980705D5B6
:101F1400236B33F8021BD1602363D9E7FFF7F0FA90
:101F2400C01BB042D8D3711CD6D00320012384F83F
:101F34005130002384F8503002B0BDE8F08113B171
:101F4400B8F1010F08D12B780373236B013323639A
:101F5400E38E013B9BB2E386E38E9BB2002BBED0A3
:101F640023689A68920703D5226B12781A73ECE7F8
:101F7400FFF7C6FAC01B8642EED8731CECD0D4E738
:101F840020236365B2E70220D0E70220D4E70000F3
:101F940090F83D30012B28D1022380F83D300368AE
:101FA400DA6842F00102DA60114A934212D002F573
:101FB400006293420ED0B3F1804F0BD0A2F5983259
:101FC400934207D002F58062934203D002F5806207
:101FD400934204D19A6802F00702062A03D01A68D1
:101FE40042F001021A60002070470120704700BFD0
:101FF400002C01407047704770477047036810B564
:102004001A69044691070ED5DA6892070BD56FF06A
:1020140002021A6101229B6902779B0777D0FFF7BE
:10202400EAFF0023237723681A69500710D5DA687A
:1020340051070DD56FF004021A6102229B692277C1
:1020440013F4407F204668D0FFF7D5FF00232377A1
:1020540023681A6912070FD5DA6810070CD56FF0D8
:1020640008021A610422DB692277990720465AD0B4
:10207400FFF7C1FF0023237723681A69D20610D51E
:10208400DA68D0060DD56FF010021A610822DB69F8
:10209400227713F4407F20464BD0FFF7ACFF002398
:1020A400237723681A69D10708D5DA68D20705D5DA
:1020B4006FF0010220461A61FEF7B2F823681A692C
:1020C400100608D5DA68110605D56FF0800220469F
:1020D4001A6100F086F923681A69520608D5DA688D
:1020E400500605D56FF0400220461A61FFF785FFC0
:1020F40023681A69910622D5DA6892061FD56FF013
:1021040020022046BDE810401A6100F069B9FFF7CB
:1021140071FF2046FFF770FF83E7FFF76BFF204650
:10212400FFF76AFF92E7FFF765FF2046FFF764FFBA
:10213400A0E7FFF75FFF2046FFF75EFFAFE710BDA4
:10214400244A0368904212D002F5006290420ED0F5
:10215400B0F1804F0BD0A2F59832904207D002F52F
:102164008062904203D002F5806290421DD14A6899
:1021740023F070031343174A904212D002F5006211
:1021840090420ED0B0F1804F0BD0A2F5983290421D
:1021940007D002F58062904203D002F5806290423B
:1021A40003D1CA6823F4407313434A6923F08003BC
:1021B400134303608B68C3620B688362054B9842C8
:1021C40003D003F50063984201D10B690363012333
:1021D40043617047002C014010B5044630B390F8B9
:1021E4003D3003F0FF021BB980F83C20FFF706F9ED
:1021F4000223206884F83D30211DFFF7A1FF01234D
:10220400002084F8463084F83E3084F83F3084F867
:10221400403084F8413084F8423084F8433084F804
:10222400443084F8453084F83D3010BD012010BDA1
:1022340010B584680A4324F47F4442EA0323234309
:10224400836010BD90F83C3070B5012B04464FF00C
:10225400020019D0012384F83D00206884F83C3042
:10226400836823F47F4323F0770383600B68402B58
:1022740065D015D8102B0CD007D853B101230020FA
:1022840084F83D3084F83C0070BD202B01D0302B05
:10229400F4D1826843F0070322F0700213431AE07A
:1022A400602B34D019D8502BE8D14A68CE68016A23
:1022B400056A21F00A0125F00105056283690A43D4
:1022C40023F0F00343EA061383610262836823F078
:1022D400700343F057038360D0E7702B0CD0B3F541
:1022E400005FCBD1CB684A688968FFF7A1FF2268F9
:1022F400936843F4804308E0CB684A688968FFF731
:1023040097FF2268936843F077039360B6E74D68BC
:10231400CE68016A21F0100101628269036A22F425
:10232400704223F0A00343EA051342EA06328261B5
:102334000362836823F0700343F06703CBE74A68C2
:10234400CE68016A056A21F00A0125F001050562DB
:1023540083690A4323F0F00343EA061383610262AC
:10236400836823F0700343F04703B4E790F83C30EC
:1023740030B5012B4FF002032DD0012280F83D30FF
:1023840003680D685C6880F83C2024F070042C43DA
:102394009A685C60114CA34212D004F50064A34215
:1023A4000ED0B3F1804F0BD0A4F59834A34207D0DC
:1023B40004F58064A34203D004F58064A34204D1ED
:1023C400496822F080020A439A60012380F83D3074
:1023D400002380F83C30184630BD00BF002C01407B
:1023E40070477047002103E00B4B5B5843500431A6
:1023F4000A480B4B42189A42F6D30A4A02E00023D9
:1024040042F8043B084B9A42F9D3FFF735F800F041
:102414000FF8FEF7ABF97047602C000800000020AD
:10242400140000201400002084050020FEE70000B2
:1024340070B500250C4E0D4CA41BA410A54209D167
:1024440000F022F800250A4E0A4CA41BA410A54251
:1024540005D170BD56F8253098470135EEE756F89A
:10246400253098470135F2E7582C0008582C00080D
:10247400582C00085C2C000803460244934200D107
:10248400704703F8011BF9E7F8B500BFF8BC08BCB6
:102494009E467047F8B500BFF8BC08BC9E4670471E
:1024A40002100002030405060708090A0B0C0D0EAE
:1024B4000F101005070500207E7E000000000000BC
:1024C400005F00000007000700147F147F14242A13
:1024D4007F2A1223130864623649552250000503EB
:1024E4000000001C2241000041221C00082A1C2A72
:1024F4000808083E080800503000000808080808CA
:10250400006060000020100804023E5149453E006E
:10251400427F400042615149462141454B311814E4
:10252400127F1027454545393C4A49493001710914
:1025340005033649494936064949291E00363600FD
:102544000000563600000008142241141414141418
:1025540041221408000201510906324979413E7EA4
:102564001111117E7F494949363E414141227F4143
:1025740041221C7F494949417F090901013E4141EA
:1025840051327F0808087F00417F41002040413FCD
:10259400017F081422417F404040407F0204027FB3
:1025A4007F0408107F3E4141413E7F090909063EF0
:1025B4004151215E7F0919294646494949310101A2
:1025C4007F01013F4040403F1F2040201F7F2018D3
:1025D400207F63140814630304780403615149459C
:1025E4004300007F4141020408102041417F000064
:1025F4000402010204404040404000010204002063
:10260400545454787F48444438384444442038442B
:1026140044487F3854545418087E0901020814545D
:10262400543C7F0804047800447D40002040443D2D
:1026340000007F10284400417F40007C0418047887
:102644007C0804047838444444387C14141408087E
:102654001414187C7C080404084854545420043F7F
:102664004440203C4040207C1C2040201C3C403006
:10267400403C44281028440C5050503C4464544C72
:1026840044000836410000007F0000004136080085
:1026940055AA55AA55070A0A01207E7E00000000AB
:1026A400000000000000181818181818180018184E
:1026B400363636360000000000000036367F7F369E
:1026C4007F7F3636083E6B0B0E38686B3E086765B5
:1026D4003718180C0C7653730000001E33331E7326
:1026E400337E1818181800000000000030180C0C75
:1026F40006060C0C1830060C1818303018180C0686
:10270400000008087F1C1C362200000018187E7E7A
:102714001818000000000000003C3838180C0000B5
:1027240000007F7F0000000000000000000000188F
:102734003C1840606030180C060303011C366363C8
:1027440063636363361C181C1E1818181818187E47
:102754003E63636030180C06037F7F6030183C6072
:102764006060633E30383C3633337F3030307F0333
:10277400033F67606060633E3C0603033F67636337
:10278400673E7F60603018180C0C0C0C3E6363636A
:102794003E636363633E3E736363737E6060301EB7
:1027A400001C1C1C00001C1C1C0000183C18003CD5
:1027B4003838180C006030180C060C183060000013
:1027C40000007E00007E000000060C183060301807
:1027D4000C063E636360301818001818003E7F73BF
:1027E4007B4B4B7B077E1C3E6363637F6363636346
:1027F4003F6666663E666666663F3E67630303033E
:102804000363673E3F66666666666666663F7F0389
:1028140003031F030303037F7F0303031F03030354
:1028240003033E63630303037363633E636363638E
:102834007F63636363633C18181818181818183CEE
:102844007060606060606063633E6363331B0F0F9E
:102854001B3363630303030303030303437F6363C0
:10286400777F6B6363636363636367676F7B7373B0
:1028740063633E63636363636363633E3F63636392
:10288400633F030303033E6363636363637B3E60ED
:102894003F6363633F1F333363633E6363033E609D
:1028A4006063633E7E1818181818181818186363A4
:1028B400636363636363633E636363632236361CEB
:1028C4001C086363636363636B6B7F3663633636D1
:1028D4001C1C363663636666663C3C181818181868
:1028E4007F606030180C0603037F3E06060606066A
:1028F4000606063E010303060C18306060403E30B5
:10290400303030303030303E081C36630000000078
:1029140000000000000000000000007F0C183000E0
:102924000000000000000000003E607E6363736EE0
:102934000303033B67636363673B0000003E670375
:102944000303673E6060606E73636363736E0000CD
:10295400003E63637F03633E3C660606063F06064D
:1029640006060000007E331E0F3E633E0303033B56
:10297400676363636363001818001C181818183C15
:102984000060600070606063633E030303331B0FE9
:102994000F1B33631C18181818181818183C00005B
:1029A40000367F6B6B6363630000003B67636363A4
:1029B40063630000003E63636363633E0000003BA7
:1029C4006763673B03030000006E7363736E6060AC
:1029D4000000003B6703030303030000003E63069B
:1029E4001C30633E060606063F060606663C0000EB
:1029F400006363636363736E000000636363633641
:102A0400361C0000006363636B6B7F360000006359
:102A140063361C3663630000006363736E60633E59
:102A24000000007F30180C06037F00780C0C180E91
:102A3400180C0C7818181818181818181818001EDC
:102A4400303018701830301E004E7F3900000000FE
:102A54000000080C0E1FFEFCFCFC7878383828288F
:102A6400000000000F0701000000000000000080CB
:102A7400C0E0C087FEFCF8F0E08000000101010323
:102A8400070F0F0F0F0F07070505C000F0F0000038
:102A94000302FFFF080F007C7C47414D45204F5641
:102AA4004552002048493A0025000000000000007B
:102AB400000000007CFEF2F27E3E3E3E1E1C071F1C
:102AC4003E7CFCFCFCFEFEFFFFFF3F1F02060000F5
:102AD400000000000000000F0B0900010F080800AF
:102AE40000000000000000000000000000000000E2
:102AF4007CFEFAFE7E5E5E5E1E1C071F3E7CFCFCB6
:102B0400FCFEFEFFFF7F3F1F0206000000000000E6
:102B140000000007050100000F0808000000000085
:102B24000000000000000000000000007CFEFAFE2F
:102B34007E5E5E5E1E1C071F3E7CFCFCFCFEFEFFF0
:102B4400FFFF3F1F02060000000000000000000F0E
:102B54000B0900010F0808000000000000004000FD
:102B640000080800000020000000040404202020C5
:102B7400000000000008080002000000001010100F
:102B8400100000000000001000000000000040429F
:102B940002000000001010100004002020000000BB
:102BA40000000008080800000000000004042404D9
:102BB4000000400000080800000020000000040499
:102BC400042020200000000000080800020000008B
:102BD40000101010100000000000001000000000A1
:102BE4000000404202000000001010100004002009
:102BF4002000000000000008080800000000000099
:102C0400040424040000000000008040A0502814A4
:102C14000A0503100907050E01000000000000006A
:102C2400080808552A14141414141414141414142D
:102C3400141C080080C0E0F0F8FCFE000103070F3C
:102C44001F3F7F0000000000000000010203040693
:042C54000708090064
:042C58000902000865
:042C5C00E501000886
:102C600001000000400080000024F400010000008A
:042C70001000000050
:04000005080023E9E3
:00000001FF
